:100000000C9446000C945D000C945D000C945D0013
:100010000C945D000C945D000C945D000C945D00EC
:100020000C945D000C945D000C945D000C945D00DC
:100030000C945D000C945D000C945D000C945D00CC
:100040000C945D000C945D000C945D000C945D00BC
:100050000C945D000C945D000C945D000C945D00AC
:100060000C945D000C945D000C945D000C945D009C
:100070000C945D000C945D000C945D000C945D008C
:100080000C945D000C945D000C945D0011241FBE67
:10009000CFEFD0E1DEBFCDBF11E0A0E0B1E0E2E004
:1000A000FCE000E00BBF02C007900D92A030B1074A
:1000B000D9F70E9456050C94FF050C940000863475
:1000C00061F1873470F4833409F1843428F4813485
:1000D000C9F08234A9F418C08434D1F0853481F495
:1000E00019C0833699F0843628F4813659F0823667
:1000F00039F40AC0853671F0853650F0863669F0DD
:100100008FEF08956ABB07C067BB05C064BB03C01F
:1001100061BB01C062B981E008956093610081E034
:100120000895863461F1873470F4833409F184349E
:1001300028F48134C9F08234A9F418C08434D1F091
:10014000853481F419C0833699F0843628F48136D9
:1001500059F0823639F40AC0853671F0853650F090
:10016000863669F08FEF08956BBB07C068BB05C08A
:1001700065BB03C062BB01C063B981E008956093B1
:10018000620081E00895DF93CF930F92CDB7DEB781
:10019000863451F1873470F4833401F1843428F4C7
:1001A0008134C1F0823411F517C08434C9F085342C
:1001B000E9F418C0833691F0843628F4813651F082
:1001C0008236A1F409C0853669F0853648F0863656
:1001D00069F40AC089B30BC086B309C083B307C0F2
:1001E00080B305C081B103C080B101C08FEF8983A6
:1001F0002981332727FD3095C9010F90CF91DF91D9
:100200000895863409F4B7C0873480F4833409F440
:100210005CC0843428F48134F1F08234D1F438C0E5
:10022000843409F46FC08534A1F489C0833609F49D
:100230004CC0843628F4813671F0823651F428C0DF
:10024000853609F47CC0853608F45CC0863609F42E
:1002500092C08FEF0895442321F0413009F0ACC0E3
:100260000CC02AB381E090E002C0880F991F6A9504
:10027000E2F7809582238ABB9DC02AB381E090E09B
:1002800002C0880F991F6A95E2F7282B2ABB92C0FB
:10029000442321F0413009F08FC00CC027B381E026
:1002A00090E002C0880F991F6A95E2F7809582233B
:1002B00087BB80C027B381E090E002C0880F991F00
:1002C0006A95E2F7282B27BB75C0442321F0413003
:1002D00009F072C00CC024B381E090E002C0880F26
:1002E000991F6A95E2F78095822384BB63C024B38B
:1002F00081E090E002C0880F991F6A95E2F7282BF1
:1003000024BB58C0442321F0413009F055C00CC033
:1003100021B381E090E002C0880F991F6A95E2F74F
:100320008095822381BB46C021B381E090E002C06A
:10033000880F991F6A95E2F7282B21BB3BC0442305
:1003400019F04130C9F50CC022B181E090E002C043
:10035000880F991F6A95E2F78095822382B92AC097
:1003600022B181E090E002C0880F991F6A95E2F700
:10037000282B22B91FC0442319F04130E9F40EC0E4
:100380002091610081E090E002C0880F991F6A957A
:10039000E2F780958223809361000CC02091610078
:1003A00081E090E002C0880F991F6A95E2F7282B40
:1003B0002093610081E0089581E00895683008F09D
:1003C0006CC0863409F45BC0873480F48334B1F1A7
:1003D000843430F48134E1F0823409F05EC023C00B
:1003E0008434B9F1853409F058C03EC0833631F108
:1003F000843630F4813661F0823609F04EC013C085
:10040000853691F1853628F1863609F046C037C029
:100410002BB381E090E002C0880F991F6A95E2F744
:10042000282B2BBB38C028B381E090E002C0880F96
:10043000991F6A95E2F7282B28BB2DC025B381E0D0
:1004400090E002C0880F991F6A95E2F7282B25BB20
:1004500022C022B381E090E002C0880F991F6A9504
:10046000E2F7282B22BB17C023B181E090E002C045
:10047000880F991F6A95E2F7282B23B90CC02091A9
:10048000620081E090E002C0880F991F6A95E2F750
:10049000282B2093620081E008958FEF0895683043
:1004A00008F072C0863409F460C0873480F4833465
:1004B000C1F1843430F48134E1F0823409F064C055
:1004C00024C08434D1F1853409F05EC042C0833643
:1004D00041F1843630F4813661F0823609F054C03F
:1004E00014C08536B1F1853640F1863609F04CC02E
:1004F0003CC02BB381E090E002C0880F991F6A9541
:10050000E2F7809582238BBB3DC028B381E090E069
:1005100002C0880F991F6A95E2F78095822388BBF5
:1005200031C025B381E090E002C0880F991F6A9521
:10053000E2F78095822385BB25C022B381E090E05D
:1005400002C0880F991F6A95E2F78095822382BBCB
:1005500019C023B181E090E002C0880F991F6A950D
:10056000E2F78095822383B90DC02091620081E07B
:1005700090E002C0880F991F6A95E2F78095822368
:100580008093620081E008958FEF0895863489F1A9
:10059000873470F4833419F1843428F48134C9F039
:1005A0008234A9F419C08434E9F0853481F41DC083
:1005B0008336A9F0843628F4813659F0823639F42E
:1005C0000BC0853691F0853668F0863691F08FEF56
:1005D00008958FEF8BBB0BC08FEF88BB08C08FEFE8
:1005E00085BB05C08FEF82BB02C08FEF83B981E06E
:1005F00008958FEF8093620081E00895863461F161
:10060000873470F4833409F1843428F48134C9F0D8
:100610008234A9F418C08434D1F0853481F419C02F
:10062000833699F0843628F4813659F0823639F4CD
:100630000AC0853671F0853650F0863669F08FEF46
:1006400008951BBA07C018BA05C015BA03C012BA7C
:1006500001C013B881E008951092620081E008950E
:10066000683008F06CC0863409F45BC0873480F4CD
:100670008334B1F1843430F48134E1F0823409F010
:100680005EC023C08434B9F1853409F058C03EC03F
:10069000833631F1843630F4813661F0823609F0E8
:1006A0004EC013C0853691F1853628F1863609F0A3
:1006B00046C037C02BB381E090E002C0880F991F7D
:1006C0006A95E2F728272BBB38C028B381E090E079
:1006D00002C0880F991F6A95E2F7282728BB2DC012
:1006E00025B381E090E002C0880F991F6A95E2F778
:1006F000282725BB22C022B381E090E002C0880FEA
:10070000991F6A95E2F7282722BB17C023B181E021
:1007100090E002C0880F991F6A95E2F7282723B955
:100720000CC02091620081E090E002C0880F991F08
:100730006A95E2F728272093620081E008958FEF01
:100740000895683008F03EC0863451F1873470F463
:10075000833401F1843428F48134C1F0823491F57A
:1007600017C08434C9F0853469F518C0833691F018
:10077000843628F4813651F0823621F509C0853659
:1007800069F0853648F08636E9F40AC029B309C015
:1007900026B307C023B305C020B303C021B101C0F5
:1007A00020B181E090E0062E02C0880F991F0A94C4
:1007B000E2F730E08223932302C0959587956A95EE
:1007C000E2F708958FEF0895683008F0B4C08634DA
:1007D00009F497C0873490F4833409F450C084340A
:1007E00030F4813401F1823409F0A5C032C0843480
:1007F00009F45BC0853409F09EC06DC0833609F4EE
:100800003EC0843630F4813671F0823609F093C0F0
:1008100020C0853609F45FC0853608F446C08636A8
:1008200009F089C06EC04BB370E02BB330E088E0B4
:1008300090E0861B970B02C0359527958A95E2F7C5
:1008400050E002C0440F551F6A95E2F7242B2BBBE2
:1008500070C048B370E028B330E088E090E0861BB9
:10086000970B02C0359527958A95E2F750E002C0B4
:10087000440F551F6A95E2F7242B28BB5AC045B395
:1008800070E025B330E088E090E0861B970B02C053
:10089000359527958A95E2F750E002C0440F551F21
:1008A0006A95E2F7242B25BB44C042B370E022B323
:1008B00030E088E090E0861B970B02C035952795C5
:1008C0008A95E2F750E002C0440F551F6A95E2F79F
:1008D000242B22BB2EC043B170E023B130E088E06E
:1008E00090E0861B970B02C0359527958A95E2F715
:1008F00050E002C0440F551F6A95E2F7242B23B93C
:1009000018C04091620070E02091620030E088E001
:1009100090E0861B970B02C0359527958A95E2F7E4
:1009200050E002C0440F551F6A95E2F7242B209334
:10093000620081E008958FEF0895683008F0B4C038
:10094000863409F497C0873490F4833409F450C096
:10095000843430F4813401F1823409F0A5C032C00E
:10096000843409F45BC0853409F09EC06DC08336C1
:1009700009F43EC0843630F4813671F0823609F0D5
:1009800093C020C0853609F45FC0853608F446C0A0
:10099000863609F089C06EC04BB370E02BB330E0EF
:1009A00088E090E0861B970B02C0220F331F8A95C8
:1009B000E2F750E002C0559547956A95E2F7242B7F
:1009C0002BBB70C048B370E028B330E088E090E003
:1009D000861B970B02C0220F331F8A95E2F750E067
:1009E00002C0559547956A95E2F7242B28BB5AC05B
:1009F00045B370E025B330E088E090E0861B970BAC
:100A000002C0220F331F8A95E2F750E002C05595CD
:100A100047956A95E2F7242B25BB44C042B370E0AA
:100A200022B330E088E090E0861B970B02C0220FD3
:100A3000331F8A95E2F750E002C0559547956A95B5
:100A4000E2F7242B22BB2EC043B170E023B130E08B
:100A500088E090E0861B970B02C0220F331F8A9517
:100A6000E2F750E002C0559547956A95E2F7242BCE
:100A700023B918C04091620070E02091620030E01C
:100A800088E090E0861B970B02C0220F331F8A95E7
:100A9000E2F750E002C0559547956A95E2F7242B9E
:100AA0002093620081E008958FEF089580E090E048
:100AB0000895D89AD998DA9ADB98DC9ADD98DE9A6C
:100AC000DF98A89AA998AA9AAB980895D99AD89825
:100AD000DB9ADA98DD9ADC98DF9ADE98A99AA898D2
:100AE000AB9AAA98089562E00E94C705089560E055
:100AF0000E94C70508958FEF8BBB8FE085BB80E018
:100B000060E00E94C70580E062E00E94C70508958A
:100B100062E00E94C70580E060E00E94C70508957A
:100B20001F93182F80E062E00E94C705812F60E0CC
:100B30000E94C7051F910895A09AA19AA29AA39A0C
:100B4000D09AD19AD29AD39AD49AD59AD69AD79A39
:100B500080E00E94AF0582E00E94AF0508958823DF
:100B600041F0823059F4BF9A15BC89E685BD14BCAA
:100B70000895BC9A13BE89E683BF12BE089566230A
:100B800021F0623019F483BD089581BF0895262FA6
:100B90009FEF899FC001112464E670E00E94D80590
:100BA000222321F0223019F463BD089561BF089516
:100BB00097FB092E07260AD077FD04D00CD006D06B
:100BC00000201AF4709561957F4F0895F6F790957F
:100BD00081959F4F0895AA1BBB1B51E107C0AA1F17
:100BE000BB1FA617B70710F0A61BB70B881F991FCE
:100BF0005A95A9F780959095BC01CD010895F89478
:020C0000FFCF24
:00000001FF
