:100000000C9446000C9465000C9465000C946500FB
:100010000C9465000C9465000C9465000C946500CC
:100020000C9465000C9465000C9465000C946500BC
:100030000C9465000C9465000C9465000C946500AC
:100040000C9465000C9465000C9410130C946500DE
:100050000C9465000C9465000C9465000C9465008C
:100060000C9465000C9465000C9465000C9465007C
:100070000C9465000C9465000C9465000C9465006C
:100080000C9465000C9465000C94650011241FBE4F
:10009000CFEFD0E1DEBFCDBF12E0A0E0B1E0E8EAF3
:1000A000F7E200E00BBF02C007900D92A831B10744
:1000B000D9F712E0A8E1B2E001C01D92AA3BB10756
:1000C000E1F70E9442130C94D2130C940000A0E0BC
:1000D000B0E0EDE6F0E00C949B13DC012B01FA019B
:1000E0009C91923008F439C1EB018881823008F488
:1000F00033C1943069F4843009F02FC111969C917A
:1001000011978981981709F428C1A0E0B1E025C1B1
:10011000843009F421C18230A9F4923009F01DC164
:100120009A01AD0188E0EA010990AE01E901099266
:100130009E018150C1F7E201898111969C9189232A
:10014000818308C1923009F407C112962D903C902A
:100150001397EB018A819B811496AD90BD90CD9051
:10016000DC901797EC80FD800E811F819101281B88
:10017000390BB90137FF04C066277727621B730B61
:10018000603271050CF061C0121613066CF5370170
:100190004801062E04C096948794779467940A9435
:1001A000D2F721E030E040E050E004C0220F331FDE
:1001B000441F551F6A95D2F72150304040405040AF
:1001C0002E213F21402351232115310541055105A1
:1001D00021F021E030E040E050E079018A01E6289A
:1001E000F728082919293CC0232BD1F1260E371EE8
:1001F00035014601062E04C096948794779467943F
:100200000A94D2F721E030E040E050E004C0220F31
:10021000331F441F551F6A95D2F72150304040408C
:1002200050402A213B214C215D21211531054105FA
:10023000510521F021E030E040E050E059016A0131
:10024000A628B728C828D9280BC0821593052CF0FA
:100250001C01AA24BB24650103C0EE24FF248701EE
:1002600011969C91D20111968C91981709F445C072
:10027000992339F0A80197012A193B094C095D0916
:1002800006C0A60195012E193F09400B510B57FDE1
:1002900008C01182338222822483358346835783A8
:1002A0001DC081E081833382228288279927DC0167
:1002B000821B930BA40BB50B84839583A683B78312
:1002C0000DC0220F331F441F551F248335834683DF
:1002D000578382819381019793838283248135811F
:1002E00046815781DA01C9010197A109B1098F5FE0
:1002F0009F4FAF4FBF4328F30BC0918333822282BD
:10030000EA0CFB1C0C1D1D1DE482F582068317837D
:1003100083E08083248135814681578157FF1AC04D
:10032000C901AA2797FDA095BA2F81709070A0707F
:10033000B0705695479537952795822B932BA42B14
:10034000B52B84839583A683B7838281938101969D
:1003500093838283DF0101C0D201CD01CDB7DEB727
:10036000E2E10C94B713A0E2B0E0E9EBF1E00C9409
:10037000A71369837A838B839C832D833E834F836A
:100380005887E9E0EE2EF12CEC0EFD1ECE01019611
:10039000B7010E94ED058E010F5E1F4FCE0105963D
:1003A000B8010E94ED058A8991E089278A8BC701EF
:1003B000B801AE01475E5F4F0E9467000E941805BA
:1003C000A096E6E00C94C313A0E2B0E0EAEEF1E000
:1003D0000C94A71369837A838B839C832D833E833C
:1003E0004F835887F9E0EF2EF12CEC0EFD1ECE0165
:1003F0000196B7010E94ED058E010F5E1F4FCE01E1
:100400000596B8010E94ED05C701B801AE01475E2F
:100410005F4F0E9467000E941805A096E6E00C94CA
:10042000C313A0E2B0E0E7E1F2E00C949B13698310
:100430007A838B839C832D833E834F835887CE01A1
:100440000196BE01675F7F4F0E94ED05CE010596C4
:10045000BE016F5E7F4F0E94ED059985923088F056
:1004600089898230C8F0943019F4823051F404C084
:10047000843029F4923081F480E091E0C6C092305B
:1004800049F420E09A858A89981321E02A87CE01D1
:100490000996BBC0823049F420E09A858A89981376
:1004A00021E02A8BCE014196B0C02D843E844F843A
:1004B00058886D887E888F88988CEE24FF24870169
:1004C000AA24BB24650140E050E060E070E0E0E079
:1004D000F0E0C10181709070892BE9F0E60CF71C07
:1004E000081D191D9A01AB012A0D3B1D4C1D5D1DF8
:1004F00080E090E0A0E0B0E0E614F70408051905FC
:1005000020F481E090E0A0E0B0E0BA01A901480F3A
:10051000591F6A1F7B1FAA0CBB1CCC1CDD1C97FE3D
:1005200008C081E090E0A0E0B0E0A82AB92ACA2A79
:10053000DB2A3196E032F10549F0660C771C881C05
:10054000991C5694479437942794C3CFFA85EA8927
:100550002B893C898B859C85280F391F2E5F3F4F47
:1005600017C0CA0181709070892B61F016950795AC
:10057000F794E79480E090E0A0E0B0E8E82AF92A58
:100580000A2B1B2B76956795579547952F5F3F4F05
:1005900077FDE7CF0CC0440F551F661F771F17FD6F
:1005A0004160EE0CFF1C001F111F215030404030F5
:1005B00090E0590790E0690790E4790760F32B8F8A
:1005C0003C8FDB01CA018F779070A070B0708034CF
:1005D0009105A105B10561F447FD0AC0E114F104DC
:1005E0000105110529F0405C5F4F6F4F7F4F407848
:1005F0001A8EFE1711F081E08A8F4D8F5E8F6F8FFC
:1006000078A383E0898FCE0149960E941805A096B1
:10061000E2E10C94B713A8E1B0E0E1E1F3E00C945F
:10062000A31369837A838B839C832D833E834F83BB
:100630005887B9E0EB2EF12CEC0EFD1ECE01019691
:10064000B7010E94ED058E010F5E1F4FCE0105968A
:10065000B8010E94ED052985223008F47EC0398951
:10066000323010F4B8017CC08A859A8989278A873C
:10067000243011F0223031F4231709F06EC060E00D
:1006800071E06EC0343039F41D861E861F86188ACC
:100690001C861B8604C0323021F484E08987B701B0
:1006A0005FC02B853C858B899C89281B390B3C8737
:1006B0002B87ED84FE840F851889AD88BE88CF888E
:1006C000D88CEA14FB040C051D0540F4EE0CFF1C4D
:1006D000001F111F215030403C872B8720E030E065
:1006E00040E050E080E090E0A0E0B0E460E070E046
:1006F000EA14FB040C051D0540F0282B392B4A2B6E
:100700005B2BEA18FB080C091D09B695A795979570
:100710008795EE0CFF1C001F111F6F5F7F4F6F311D
:10072000710531F7DA01C9018F779070A070B07050
:1007300080349105A105B10561F427FD0AC0E114DB
:10074000F1040105110529F0205C3F4F4F4F5F4F29
:1007500020782D873E874F87588BBE01675F7F4F7C
:10076000CB010E9418056896EAE00C94BF13A8E13B
:10077000B0E0EDEBF3E00C94A71369837A838B83ED
:100780009C832D833E834F83588789E0E82EF12C8C
:10079000EC0EFD1ECE010196B7010E94ED058E0103
:1007A0000F5E1F4FCE010596B8010E94ED058985A9
:1007B000823040F08989823028F0C701B8010E9458
:1007C000650601C08FEF6896E6E00C94C313A8E1BC
:1007D000B0E0EDEEF3E00C94A71369837A838B838A
:1007E0009C832D833E834F83588789E0E82EF12C2C
:1007F000EC0EFD1ECE010196B7010E94ED058E01A3
:100800000F5E1F4FCE010596B8010E94ED05898548
:10081000823040F08989823028F0C701B8010E94F7
:10082000650601C081E06896E6E00C94C313A8E079
:10083000B0E0EDE1F4E00C94A4139B01AC0183E083
:100840008983DA01C9018827B7FD83959927AA27EB
:10085000BB27B82E211531054105510519F482E059
:1008600089833AC08823A9F0203080E0380780E0EF
:10087000480780E8580729F460E070E080E09FECCA
:1008800030C0EE24FF248701E21AF30A040B150B93
:1008900002C079018A018EE1C82ED12CDC82CB8284
:1008A000ED82FE820F831887C801B7010E94C90438
:1008B00001971816190684F4082E04C0EE0CFF1CCC
:1008C000001F111F0A94D2F7ED82FE820F83188752
:1008D000C81AD90ADC82CB82BA82CE0101960E9464
:1008E00018052896E9E00C94C013ACE0B0E0EBE703
:1008F000F4E00C94AB1369837A838B839C83CE01E1
:100900000196BE016B5F7F4F0E94ED058D818230A5
:1009100061F1823050F1843021F48E81882351F1CD
:100920002EC02F81388537FD20C06E812F313105D3
:100930001CF06623F9F023C08EE190E0821B930B3C
:1009400029853A854B855C8504C056954795379532
:1009500027958A95D2F76623B1F05095409530954A
:1009600021953F4F4F4F5F4F0EC020E030E040E0F9
:1009700050E009C02FEF3FEF4FEF5FE704C020E0EA
:1009800030E040E050E8B901CA012C96E2E00C9456
:10099000C713EF92FF920F931F937B018C0180E0AE
:1009A000E81680E0F80681E0080780E0180788F480
:1009B0008FEFE816F1040105110531F028F088E009
:1009C00090E0A0E0B0E017C080E090E0A0E0B0E0F0
:1009D00012C080E0E81680E0F80680E0080781E0B9
:1009E000180728F088E190E0A0E0B0E004C080E1C2
:1009F00090E0A0E0B0E020E230E040E050E0281BD2
:100A0000390B4A0B5B0B04C016950795F794E794D6
:100A10008A95D2F7F701E85FFE4F8081281B3109E4
:100A200041095109C9011F910F91FF90EF9008955D
:100A3000DF92EF92FF920F931F93FC01E480F58009
:100A400006811781D1808081823048F480E090E077
:100A5000A0E1B0E0E82AF92A0A2B1B2BA5C08430BC
:100A600009F49FC0823021F4EE24FF24870105C0E1
:100A7000E114F1040105110519F4E0E0F0E096C07D
:100A8000628173819FEF623879070CF05BC022E8C6
:100A90003FEF261B370B2A3131052CF020E030E0E8
:100AA00040E050E02AC0B801A701022E04C07695AC
:100AB0006795579547950A94D2F781E090E0A0E0BA
:100AC000B0E004C0880F991FAA1FBB1F2A95D2F758
:100AD0000197A109B1098E219F21A023B12300977D
:100AE000A105B10521F081E090E0A0E0B0E09A011D
:100AF000AB01282B392B4A2B5B2BDA01C9018F77ED
:100B00009070A070B07080349105A105B10539F4E2
:100B100027FF09C0205C3F4F4F4F5F4F04C0215C4F
:100B20003F4F4F4F5F4FE0E0F0E02030A0E03A074A
:100B3000A0E04A07A0E45A0710F0E1E0F0E07901F4
:100B40008A0127C06038710564F5FB01E158FF4F49
:100B5000D801C7018F779070A070B0708034910574
:100B6000A105B10539F4E7FE0DC080E490E0A0E0F6
:100B7000B0E004C08FE390E0A0E0B0E0E80EF91E22
:100B80000A1F1B1F17FF05C016950795F794E794DA
:100B9000319687E016950795F794E7948A95D1F7F3
:100BA00005C0EE24FF248701EFEFF0E06E2F67957C
:100BB00066276795902F9F77D794DD24D7948E2F43
:100BC0008695492F462B582F5D29B701CA011F91E1
:100BD0000F91FF90EF90DF900895FC01DB014081C1
:100BE00051812281622F6F7770E0221F2227221FFE
:100BF0009381892F880F822B282F30E0991F992706
:100C0000991F11969C93119721153105A9F541154E
:100C100051056105710511F482E037C082E89FEF4C
:100C200013969C938E9312979A01AB0167E0220F63
:100C3000331F441F551F6A95D1F783E08C930DC075
:100C4000220F331F441F551F12968D919C911397AD
:100C5000019713969C938E931297203080E038076B
:100C600080E0480780E4580758F314962D933D938D
:100C70004D935C93179708952F3F310579F44115F3
:100C800051056105710519F484E08C93089564FFA2
:100C900003C081E08C9312C01C9210C02F573040CB
:100CA00013963C932E93129783E08C9387E0440F26
:100CB000551F661F771F8A95D1F7706414964D9360
:100CC0005D936D937C93179708951F93DC01FB014F
:100CD0009C91923008F447C08081823008F443C070
:100CE000943051F411961C91843099F58181682FCC
:100CF00070E0611B71093FC0843021F0923031F403
:100D00008230B9F18181882389F12DC011961C911F
:100D100011978230F1F081811817D9F412962D9134
:100D20003C911397828193818217930794F028173F
:100D30003907BCF014968D919D910D90BC91A02D1A
:100D40002481358146815781281739074A075B0777
:100D500018F4112341F00AC082179307A407B507BE
:100D600040F4112319F061E070E005C06FEF7FEFF0
:100D700002C060E070E0CB011F91089520ED37E0E4
:100D800007C0F9013197F1F7615070408040904001
:100D90006115710581059105A1F708958091B9024A
:100DA0008F3151F480911802882311F080E008956A
:100DB00081E08093180208951092180280E008954F
:100DC0000F931F93182F062F08C0802F0E94E5094C
:100DD0000E94CE068823C9F311501123B1F71F9149
:100DE0000F9108951F93182F03C0812F0E94E509CA
:100DF00080E00E94FB118F31C1F30E949E1220E01F
:100E000030E040ED57E003C0CA010197F1F72F5FD2
:100E10003F4F8BE0293B3807B9F71F9108950E9497
:100E20009E1220E030E040ED57E003C0CA01019778
:100E3000F1F72F5F3F4F83E0293E3807B9F7089558
:100E40000F931F93182F062F80E00E94FB11113083
:100E500009F03FC0883038F02AC081E064E640E005
:100E60002CE50E94D712802F0E94FB1182FFF5CF44
:100E700006C081E064E640E02CE50E94D712802F96
:100E80000E94FB1182FDF5CF06C081E064E640E0E0
:100E90002CE50E94D712802F0E94FB1182FFF5CF14
:100EA00058C081E064E640E02CE50E94D712802F14
:100EB0000E94FB1182FDF5CF06C081E064E640E0B0
:100EC0002CE50E94D712802F0E94FB1182FFF5CFE4
:100ED00040C01123F1F5883038F42AC080E064E680
:100EE00041E02CE50E94D712802F0E94FB1182FF67
:100EF000F5CF06C080E064E641E02CE50E94D71201
:100F0000802F0E94FB1182FDF5CF06C080E064E6D1
:100F100041E02CE50E94D712802F0E94FB1182FF36
:100F2000F5CF17C080E064E641E02CE50E94D712BF
:100F3000802F0E94FB1182FDF5CF06C080E064E6A1
:100F400041E02CE50E94D712802F0E94FB1182FF06
:100F5000F5CF0E940F071F910F9108951F93182F2F
:100F600003C0812F0E94E5090E944C128823C9F317
:100F70001F9108951F93162F0E94E0060E940F07ED
:100F8000812F0E94AE070E940F071F9108951F93A3
:100F9000681B10E016160CF011E0772767FD7095BE
:100FA00077FF03C0709561957F4F862F612F0E9458
:100FB000E0060E940F07812F0E94AE070E940F07D4
:100FC0001F9108951F93162F0E94E0060E940F079D
:100FD000812F0E94AE070E940F071F9108951F9353
:100FE000322F23E0829FC0011124680F429FA0018D
:100FF0001124340F10E0361708F411E0361B232FAC
:10100000332727FD309537FF03C0309521953F4F9B
:10101000822F612F0E94E0060E940F07812F0E94FD
:10102000AE070E940F071F9108956F927F929F92C3
:10103000AF92BF92CF92DF92EF92FF920F931F93E6
:10104000CF93DF930E94FB118093B902882309F4A8
:1010500065C0A0901902B0901A02C0901B02D090F7
:101060001C02E0901D02F0901E0200911F021091E0
:101070002002C0E0D0E0682E7724C3010C2E02C00D
:10108000959587950A94E2F799249394982280FF86
:101090000AC0C601B50120E030E040E85FE30E94ED
:1010A000E4015B016C012196892D90E08C9FB001D9
:1010B0008D9F700D9C9F700D1124882777FD809562
:1010C000982F0E9417049B01AC01C801B7010E9430
:1010D000E4017B018C01C530D10579F6A6019501AB
:1010E0000E940B03609308027093090280930A0226
:1010F00090930B0280E090E0A0E0B0E080931902B2
:1011000090931A02A0931B02B0931C0280931D02BD
:1011100090931E02A0931F02B0932002DF91CF9103
:101120001F910F91FF90EF90DF90CF90BF90AF9005
:101130009F907F906F9008952F923F924F925F9271
:101140006F927F928F929F92AF92BF92CF92DF92D7
:10115000EF92FF920F931F930E9415086090210257
:1011600070902202809023029090240260922502C7
:1011700070922602809227029092280260910802C3
:101180007091090280910A0290910B0220E030E0F8
:1011900040E450E40E94B3017B018C016093210282
:1011A00070932202809323029093240220912902BB
:1011B00030912A0240912B0250912C020E94E401AE
:1011C0001B012C016093290270932A0280932B0249
:1011D00090932C02C801B70120910C0230910D02AE
:1011E00040910E0250910F020E9411025B016C01AE
:1011F000C801B701A40193010E94B3012091140218
:101200003091150240911602509117020E9411026E
:101210009B01AC01C601B5010E94E4017B018C0178
:10122000C201B101209110023091110240911202CD
:10123000509113020E9411029B01AC01C801B70139
:101240000E94E4019B01AC010E94E40160932D0225
:1012500070932E0280932F029093300220E030E0B2
:101260004FE753E40E94B703181664F480E090E05F
:10127000AFE7B3E480932D0290932E02A0932F0248
:10128000B093300260912D0270912E0280912F0256
:101290009091300220E030E04FE753EC0E94E703EA
:1012A000882364F480E090E0AFE7B3EC80932D02F4
:1012B00090932E02A0932F02B0933002E0902D0263
:1012C000F0902E0200912F0210913002C801B70158
:1012D00020E030E040E050E00E94E7038823CCF4B7
:1012E0008FEF90E09093360280933502C801B701EA
:1012F0000E9475049B0177FF03C0309521953F4FF5
:101300008FEF90E0821B930B90933802809337020B
:1013100011C0C801B7010E9475042FEF30E0C90168
:10132000861B970B909336028093350230933802D8
:101330002093370280913702909138026FEF70E06E
:101340000E94741304E610E0CB01809FB001819FDE
:10135000700D909F700D1124882777FD8095982F30
:101360000E9417040E94750470933802609337023C
:1013700080913502909136026FEF70E00E947413F5
:10138000CB01809FB001819F700D909F700D112443
:10139000882777FD8095982F0E9417040E94750476
:1013A00070933602609335021F910F91FF90EF907A
:1013B000DF90CF90BF90AF909F908F907F906F9075
:1013C0005F904F903F902F9008951F93182F0E9489
:1013D0009C08112339F481E06091350241E02091AD
:1013E000370206C080E06091370240E0209135026C
:1013F0000E94D7121F91089508950F931F9390E0B4
:101400008C0123E0000F111F2A95E1F7081B190B2F
:101410000C551D4F8091330260913402F8014481D4
:1014200025810E94EF07F801848180933302958122
:1014300090933402805D60E00E94C5118091340277
:10144000805D60E00E94C51160ED77E080E090E093
:101450000E94BE060E947A0A0E94740A64EF71E03C
:1014600080E090E00E94BE068091330260913402D9
:10147000F801418122810E94EF07F8018181809368
:101480003302928190933402805D60E00E94C51126
:1014900080913402805D60E00E94C51160ED77E0CC
:1014A00080E090E00E94BE060E947A0A0E94740AC0
:1014B00064EF71E080E090E00E94BE061F910F9102
:1014C00008951F9310E00AC0812F0E94FD0960ED6E
:1014D00077E080E090E00E94BE061F5F80913A02B4
:1014E000181790F31F91089582E40E944B0C85FF1A
:1014F000FBCF089582E466E00E94910D88EE93E0B0
:1015000028EC30E0F9013197F1F70197D9F782E43F
:1015100066E00E94130E089582E466E041E00E94B6
:101520008E0C82E465E040E00E948E0C089580E01D
:1015300090E0FC01E55CFD4F108201968936910533
:10154000C1F710923202109231020895BF92CF92E9
:10155000DF92EF92FF920F931F93CF93DF938091CF
:101560003B0240913C0240512AE0829FC00111247D
:10157000480F4093390240933A0200E010E022E025
:10158000E22EF12C93E0C92ED12C8AE0B82E02C1B4
:1015900080818F3291F4C70163E070E00E94741380
:1015A000029709F4F1C082E0E816F10409F4ECC0F6
:1015B000409339020E94970AF6C080818F3209F465
:1015C000DDC0C6018E97459718F020E030E002C0DC
:1015D00022E030E0E0E0F0E0C6014997459710F4E2
:1015E000E1E0F0E0E901CE0FDF1FC70165E170E047
:1015F0000E94741383309105C9F4F701E55CFD4F37
:101600008081F601E55CFD4F2081FE01B3E0EE0F25
:10161000FF1FBA95E1F7EC1BFD0BEC55FD4F205178
:101620008B9DC0011124280F2083A8C0863091050E
:10163000C9F4F701E55CFD4F8081F601E55CFD4FE3
:101640002081FE01A3E0EE0FFF1FAA95E1F7EC1B3E
:10165000FD0BEC55FD4F20518B9DC0011124280F2F
:1016600024838AC089309105C9F4F701E55CFD4FF8
:101670008081F601E55CFD4F2081FE0173E0EE0FF5
:10168000FF1F7A95E1F7EC1BFD0BEC55FD4F205148
:101690008B9DC0011124280F25836EC08C309105CD
:1016A000C9F4F701E55CFD4F8081F601E55CFD4F73
:1016B0002081FE0163E0EE0FFF1F6A95E1F7EC1B4E
:1016C000FD0BEC55FD4F20518B9DC0011124280FBF
:1016D000268352C08F309105C9F4F701E55CFD4FB8
:1016E0008081F601E55CFD4F2081FE0153E0EE0FA5
:1016F000FF1F5A95E1F7EC1BFD0BEC55FD4F2051F8
:101700008B9DC0011124280F218336C082319105A1
:10171000C9F4F701E55CFD4F8081F601E55CFD4F02
:101720002081FE0133E0EE0FFF1F3A95E1F7EC1B3D
:10173000FD0BEC55FD4F20518B9DC0011124280F4E
:1017400022831AC00097D1F4F701E55CFD4F808138
:10175000F601E55CFD4F2081FE0193E0EE0FFF1FD7
:101760009A95E1F7EC1BFD0BEC55FD4F20518B9D3D
:10177000C0011124280F23830F5F1F4F073011056D
:1017800019F4415000E010E00894E11CF11C0894A9
:10179000C11CD11CF701E55CFD4F8081833209F04B
:1017A000F7CE40933902DF91CF911F910F91FF90B7
:1017B000EF90DF90CF90BF900895873489F18834FF
:1017C00070F4833419F1843428F48134D9F08234EC
:1017D000B9F41AC08534F1F08634F0F419C08436B7
:1017E000B9F0853638F4823679F0833678F481366C
:1017F00039F408C0863681F0863660F0873681F08D
:101800008FEF08956ABB0AC067BB08C064BB06C0FF
:1018100061BB04C062B902C06093610081E00895B9
:101820006093640081E00895873489F1883470F40E
:10183000833419F1843428F48134D9F08234B9F432
:101840001AC08534F1F08634F0F419C08436B9F04A
:10185000853638F4823679F0833678F4813639F477
:1018600008C0863681F0863660F0873681F08FEFCB
:1018700008956BBB0AC068BB08C065BB06C062BBED
:1018800004C063B902C06093620081E00895609370
:10189000650081E00895DF93CF930F92CDB7DEB757
:1018A000873471F1883470F4833411F1843428F46E
:1018B0008134D1F0823439F519C08534E9F08634A9
:1018C000E8F418C08436B1F0853638F4823671F009
:1018D000833670F48136B9F407C0863679F08636DF
:1018E00058F0873681F40CC089B30EC086B30CC0A3
:1018F00083B30AC080B308C081B106C080B104C000
:101900008091630001C08FEF89832981332727FDF0
:101910003095C9010F90CF91DF910895873409F474
:10192000DDC0883488F4833409F460C0843428F43A
:10193000813411F18234F1F43CC0853409F490C053
:10194000863408F0AAC06FC0843609F46CC08536AE
:1019500040F4823671F1833608F048C0813651F484
:101960000BC0863609F499C0863608F479C08736EC
:1019700009F4B4C08FEF0895442321F0413009F0F9
:10198000CEC00CC02AB381E090E002C0880F991F3E
:101990006A95E2F7809582238ABBBFC02AB381E0B3
:1019A00090E002C0880F991F6A95E2F7282B2ABBA6
:1019B000B4C0442321F0413009F0B1C00CC027B3BA
:1019C00081E090E002C0880F991F6A95E2F7809548
:1019D000822387BBA2C027B381E090E002C0880FBA
:1019E000991F6A95E2F7282B27BB97C0442321F063
:1019F000413009F094C00CC024B381E090E002C0F3
:101A0000880F991F6A95E2F78095822384BB85C071
:101A100024B381E090E002C0880F991F6A95E2F735
:101A2000282B24BB7AC0442321F0413009F077C031
:101A30000CC021B381E090E002C0880F991F6A9525
:101A4000E2F78095822381BB68C021B381E090E0FA
:101A500002C0880F991F6A95E2F7282B21BB5DC051
:101A6000442321F0413009F05AC00CC022B181E07A
:101A700090E002C0880F991F6A95E2F78095822353
:101A800082B94BC022B181E090E002C0880F991F5B
:101A90006A95E2F7282B22B940C0442321F0413057
:101AA00009F03DC00EC02091610081E090E002C0CD
:101AB000880F991F6A95E2F78095822380936100D1
:101AC0002CC02091610081E090E002C0880F991F36
:101AD0006A95E2F7282B209361001FC0442319F078
:101AE0004130E9F40EC02091640081E090E002C032
:101AF000880F991F6A95E2F780958223809364008E
:101B00000CC02091640081E090E002C0880F991F12
:101B10006A95E2F7282B2093640081E0089581E024
:101B20000895683008F07DC0873409F46CC08834AB
:101B300088F48334D1F1843430F4813401F1823477
:101B400009F06FC027C0853409F445C0863408F019
:101B50004DC036C08436A1F1853640F48236D1F0CE
:101B6000833618F5813609F05CC009C0863609F461
:101B70003DC0863680F1873609F053C044C02BB390
:101B800081E090E002C0880F991F6A95E2F7282B48
:101B90002BBB45C028B381E090E002C0880F991F9D
:101BA0006A95E2F7282B28BB3AC025B381E090E084
:101BB00002C0880F991F6A95E2F7282B25BB2FC01A
:101BC00022B381E090E002C0880F991F6A95E2F786
:101BD000282B22BB24C023B181E090E002C0880FF3
:101BE000991F6A95E2F7282B23B919C0209162004A
:101BF00081E090E002C0880F991F6A95E2F7282BD8
:101C0000209362000CC02091650081E090E002C04A
:101C1000880F991F6A95E2F7282B2093650081E0D1
:101C200008958FEF0895683008F084C0873409F470
:101C300072C0883488F48334E1F1843430F4813420
:101C400001F1823409F076C028C0853409F449C016
:101C5000863408F052C039C08436B9F1853640F474
:101C60008236D9F0833628F5813609F063C009C081
:101C7000863609F442C08636A0F1873609F05AC08C
:101C80004AC02BB381E090E002C0880F991F6A958B
:101C9000E2F7809582238BBB4BC028B381E090E0B4
:101CA00002C0880F991F6A95E2F78095822388BB4E
:101CB0003FC025B381E090E002C0880F991F6A956C
:101CC000E2F78095822385BB33C022B381E090E0A8
:101CD00002C0880F991F6A95E2F78095822382BB24
:101CE00027C023B181E090E002C0880F991F6A9558
:101CF000E2F78095822383B91BC02091620081E0C6
:101D000090E002C0880F991F6A95E2F780958223C0
:101D1000809362000DC02091650081E090E002C0D8
:101D2000880F991F6A95E2F780958223809365005A
:101D300081E008958FEF08958734B9F1883470F405
:101D4000833429F1843428F48134D9F08234B9F40D
:101D50001BC0853411F1863418F51CC08436D1F0CF
:101D6000853638F4823681F0833688F4813639F44A
:101D700008C08636A9F0863680F08736B1F08FEF3E
:101D800008958FEF8BBB0FC08FEF88BB0CC08FEF18
:101D900085BB09C08FEF82BB06C08FEF83B903C03C
:101DA0008FEF8093620081E008958FEF809365004C
:101DB00081E00895873489F1883470F4833419F10F
:101DC000843428F48134D9F08234B9F41AC08534CB
:101DD000F1F08634F0F419C08436B9F0853638F461
:101DE000823679F0833678F4813639F408C0863645
:101DF00081F0863660F0873681F08FEF08951BBA48
:101E00000AC018BA08C015BA06C012BA04C013B87E
:101E100002C01092620081E008951092650081E096
:101E20000895683008F06CC0863409F45BC08734CC
:101E300080F48334B1F1843430F48134E1F08234BD
:101E400009F05EC023C08434B9F1853409F058C06C
:101E50003EC0833631F1843630F4813661F082360B
:101E600009F04EC013C0853691F1853628F18636CB
:101E700009F046C037C02BB381E090E002C0880F64
:101E8000991F6A95E2F728272BBB38C028B381E059
:101E900090E002C0880F991F6A95E2F7282728BBB7
:101EA0002DC025B381E090E002C0880F991F6A958C
:101EB000E2F7282725BB22C022B381E090E002C0D0
:101EC000880F991F6A95E2F7282722BB17C023B114
:101ED00081E090E002C0880F991F6A95E2F72827F9
:101EE00023B90CC02091620081E090E002C0880F0D
:101EF000991F6A95E2F728272093620081E00895F0
:101F00008FEF0895683008F043C0873471F188344A
:101F100070F4833411F1843428F48134D1F08234A4
:101F2000B9F519C08534E9F08634E8F418C0843670
:101F3000B1F0853638F4823671F0833670F481362C
:101F400039F507C0863679F0863658F0873601F5C0
:101F50000CC029B30CC026B30AC023B308C020B3F9
:101F600006C021B104C020B102C02091630081E00D
:101F700090E0062E02C0880F991F0A94E2F730E025
:101F80008223932302C0959587956A95E2F7089579
:101F90008FEF0895683008F0B4C0863409F497C014
:101FA000873490F4833409F450C0843430F481349D
:101FB00001F1823409F0A5C032C0843409F45BC059
:101FC000853409F09EC06DC0833609F43EC0843666
:101FD00030F4813671F0823609F093C020C0853626
:101FE00009F45FC0853608F446C0863609F089C01A
:101FF0006EC04BB370E02BB330E088E090E0861BFE
:10200000970B02C0359527958A95E2F750E002C0FC
:10201000440F551F6A95E2F7242B2BBB70C048B3C1
:1020200070E028B330E088E090E0861B970B02C098
:10203000359527958A95E2F750E002C0440F551F69
:102040006A95E2F7242B28BB5AC045B370E025B34C
:1020500030E088E090E0861B970B02C0359527950D
:102060008A95E2F750E002C0440F551F6A95E2F7E7
:10207000242B25BB44C042B370E022B330E088E09B
:1020800090E0861B970B02C0359527958A95E2F75D
:1020900050E002C0440F551F6A95E2F7242B22BB83
:1020A0002EC043B170E023B130E088E090E0861BA1
:1020B000970B02C0359527958A95E2F750E002C04C
:1020C000440F551F6A95E2F7242B23B918C040919D
:1020D000620070E02091620030E088E090E0861BB2
:1020E000970B02C0359527958A95E2F750E002C01C
:1020F000440F551F6A95E2F7242B2093620081E07C
:1021000008958FEF0895683008F0B4C0863409F45C
:1021100097C0873490F4833409F450C0843430F489
:10212000813401F1823409F0A5C032C0843409F44D
:102130005BC0853409F09EC06DC0833609F43EC093
:10214000843630F4813671F0823609F093C020C0B5
:10215000853609F45FC0853608F446C0863609F036
:1021600089C06EC04BB370E02BB330E088E090E0E4
:10217000861B970B02C0220F331F8A95E2F750E0AF
:1021800002C0559547956A95E2F7242B2BBB70C08A
:1021900048B370E028B330E088E090E0861B970BEE
:1021A00002C0220F331F8A95E2F750E002C0559516
:1021B00047956A95E2F7242B28BB5AC045B370E0D7
:1021C00025B330E088E090E0861B970B02C0220F19
:1021D000331F8A95E2F750E002C0559547956A95FE
:1021E000E2F7242B25BB44C042B370E022B330E0B9
:1021F00088E090E0861B970B02C0220F331F8A9560
:10220000E2F750E002C0559547956A95E2F7242B16
:1022100022BB2EC043B170E023B130E088E090E0F3
:10222000861B970B02C0220F331F8A95E2F750E0FE
:1022300002C0559547956A95E2F7242B23B918C03B
:102240004091620070E02091620030E088E090E010
:10225000861B970B02C0220F331F8A95E2F750E0CE
:1022600002C0559547956A95E2F7242B20936200AA
:1022700081E008958FEF0895882341F0823059F46A
:10228000BF9A15BC8AE685BD14BC0895BC9A13BEDE
:102290008AE683BF12BE0895662321F0623019F4E6
:1022A00083BD089581BF0895262F9FEF899FC001A8
:1022B000112464E670E00E947413222321F022307E
:1022C00019F463BD089561BF0895B89ABA9ABB988E
:1022D000B99A80E58DB90895B898BA98BB9AB9981B
:1022E00080E48DB908958FB9779BFECF0895779BD1
:1022F000FECF8FB1089520E004C0EFB9779BFECFE9
:102300002F5FFC01E20FF11DE081EE23B1F708958C
:10231000DC01779BFECF8FB18C9390E008C09F5F6C
:10232000779BFECF8FB1FD01E90FF11D8083FD0189
:10233000E90FF11D8081833291F71082089588237F
:1023400019F0813009F50CC083E389B9109290002F
:102350008AB188618AB98AB186608AB9579A089524
:1023600083E3809399001092980080919A0088618D
:1023700080939A0080919A00866080939A00809161
:102380009A00806880939A000895982F662319F028
:10239000613059F404C05D9BFECF9CB908958091D3
:1023A0009B0085FFFCCF90939C000895882321F02B
:1023B000813031F08FEF08955F9BFECF8CB108958F
:1023C00080919B0087FFFCCF80919C0008951F9314
:1023D000CF93DF93EC0110E004C060E00E94C511D0
:1023E0001F5FFE01E10FF11D80818823B1F7DF91AE
:1023F000CF911F9108951092B902882319F586E4B0
:102400000E944B0C282F80FF05C08091B90281608B
:102410008093B90224FF05C08091B9028260809345
:10242000B90223FF05C08091B90284608093B9028C
:1024300022FF05C08091B90288608093B90221FF14
:1024400028C022C083E40E944B0C282F80FF05C0C7
:102450008091B90281608093B90221FF05C080910B
:10246000B90282608093B90222FF05C08091B9024F
:1024700084608093B90223FF05C08091B90288600F
:102480008093B90224FF05C08091B90280618093D6
:10249000B9028091B902089587E40E944B0C282F5D
:1024A00030E021703070220F331F86958170820FCB
:1024B000089586E460E040E00E948E0C86E464E0CB
:1024C00040E00E948E0C86E463E040E00E948E0CA7
:1024D00086E462E040E00E948E0C86E461E040E029
:1024E0000E948E0C83E460E040E00E948E0C83E446
:1024F00061E040E00E948E0C83E462E040E00E94D4
:102500008E0C83E463E040E00E948E0C83E464E080
:1025100040E00E948E0C87E461E040E00E948E0C57
:1025200087E460E040E00E948E0C089562E00E9423
:102530005411089560E00E945411089580E060E015
:102540000E94541180E062E00E945411089562E0FC
:102550000E94541180E060E00E94541108951F937E
:10256000182F80E062E00E945411812F60E00E94E9
:1025700054111F910895882329F484E465E00E9492
:10258000130E0895813021F484E464E00E94130E58
:102590000895882329F484E465E00E94910D08954C
:1025A000813021F484E464E00E94910D0895FF924B
:1025B0000F931F93182FF62E022F442321F480E04F
:1025C0000E94C91205C0413019F480E00E94BB127C
:1025D000112321F481E00E94C91205C0113019F4C1
:1025E00081E00E94BB12802F60E00E9454118F2D69
:1025F00062E00E9454111F910F91FF90089580E0B6
:102600000E943C1182E00E943C1184E465E041E0BC
:102610000E948E0C84E464E041E00E948E0C0895D8
:102620001F920F920FB60F920BB60F9211248F9339
:10263000EF93FF93E0913202F0E08CB1E55CFD4F47
:102640008083E0913202F0E0E55CFD4F80818CB93F
:10265000E0913202F0E0E55CFD4F8081833219F4B5
:1026600081E080933102809132028F5F8093320249
:10267000FF91EF918F910F900BBE0F900FBE0F90B7
:102680001F901895CF93DF930E94FF120E9459125A
:1026900080E00E949F1178942CED35E040E25EE4EA
:1026A00003C0CA010197F1F7215030408FEF2F3F4F
:1026B0003807B9F7C0E2DEE4809131028130E1F7FA
:1026C000F89488EC90E003C0FE013197F1F7019790
:1026D0002FEF8F3F9207C1F70E94A60A0E94610A5E
:1026E0000E94970A7894E8CF97FB092E07260AD014
:1026F00077FD04D00CD006D000201AF470956195B7
:102700007F4F0895F6F7909581959F4F0895AA1BE6
:10271000BB1B51E107C0AA1FBB1FA617B70710F0CC
:10272000A61BB70B881F991F5A95A9F780959095FE
:10273000BC01CD0108952F923F924F925F926F920C
:102740007F928F929F92AF92BF92CF92DF92EF9241
:10275000FF920F931F93CF93DF93CDB7DEB7CA1BC2
:10276000DB0B0FB6F894DEBF0FBECDBF09942A88ED
:10277000398848885F846E847D848C849B84AA8495
:10278000B984C884DF80EE80FD800C811B81AA8122
:10279000B981CE0FD11D0FB6F894DEBF0FBECDBFED
:0827A000ED010895F894FFCF4C
:1027A8000000000000000000000102020303030310
:1027B80004040404040404040505050505050505C9
:1027C80005050505050505050606060606060606A9
:1027D8000606060606060606060606060606060691
:1027E8000606060606060606070707070707070779
:1027F8000707070707070707070707070707070761
:102808000707070707070707070707070707070750
:102818000707070707070707070707070707070740
:102828000707070707070707080808080808080828
:102838000808080808080808080808080808080810
:102848000808080808080808080808080808080800
:1028580008080808080808080808080808080808F0
:1028680008080808080808080808080808080808E0
:1028780008080808080808080808080808080808D0
:1028880008080808080808080808080808080808C0
:1028980008080808080808080808080808080808B0
:1028A8000808080808080808000040400000FE4220
:0828B80052491D390000A04047
:00000001FF
